{
  "address": "0x338D6FB63d56C49a5765E7BCCe0b8c9D17EDE4a2",
  "abi": [
    {
      "inputs": [
        {
          "internalType": "address",
          "name": "priceFeedAddress",
          "type": "address"
        }
      ],
      "stateMutability": "nonpayable",
      "type": "constructor"
    },
    {
      "inputs": [],
      "name": "NotOwner",
      "type": "error"
    },
    {
      "stateMutability": "payable",
      "type": "fallback"
    },
    {
      "inputs": [],
      "name": "MINIMUM_USD",
      "outputs": [
        {
          "internalType": "uint256",
          "name": "",
          "type": "uint256"
        }
      ],
      "stateMutability": "view",
      "type": "function"
    },
    {
      "inputs": [
        {
          "internalType": "address",
          "name": "",
          "type": "address"
        }
      ],
      "name": "addressToAmountFunded",
      "outputs": [
        {
          "internalType": "uint256",
          "name": "",
          "type": "uint256"
        }
      ],
      "stateMutability": "view",
      "type": "function"
    },
    {
      "inputs": [],
      "name": "fund",
      "outputs": [],
      "stateMutability": "payable",
      "type": "function"
    },
    {
      "inputs": [
        {
          "internalType": "uint256",
          "name": "",
          "type": "uint256"
        }
      ],
      "name": "funders",
      "outputs": [
        {
          "internalType": "address",
          "name": "",
          "type": "address"
        }
      ],
      "stateMutability": "view",
      "type": "function"
    },
    {
      "inputs": [],
      "name": "getVersion",
      "outputs": [
        {
          "internalType": "uint256",
          "name": "",
          "type": "uint256"
        }
      ],
      "stateMutability": "view",
      "type": "function"
    },
    {
      "inputs": [],
      "name": "i_owner",
      "outputs": [
        {
          "internalType": "address",
          "name": "",
          "type": "address"
        }
      ],
      "stateMutability": "view",
      "type": "function"
    },
    {
      "inputs": [],
      "name": "priceFeed",
      "outputs": [
        {
          "internalType": "contract AggregatorV3Interface",
          "name": "",
          "type": "address"
        }
      ],
      "stateMutability": "view",
      "type": "function"
    },
    {
      "inputs": [],
      "name": "withdraw",
      "outputs": [],
      "stateMutability": "nonpayable",
      "type": "function"
    },
    {
      "stateMutability": "payable",
      "type": "receive"
    }
  ],
  "transactionHash": "0xae6edb98235a6f202e9c9eabff9b7d2c5ac4178b2305ddaf82b1e07a0a51c1b2",
  "args": [
    "0x694AA1769357215DE4FAC081bf1f309aDC325306"
  ],
  "numDeployments": 1,
  "solcInputHash": "6dce7e9c45c367e15a7cceb831c1cd36",
  "bytecode": "0x60a060405234801561001057600080fd5b5060405162000fea38038062000fea83398181016040528101906100349190610112565b3373ffffffffffffffffffffffffffffffffffffffff1660808173ffffffffffffffffffffffffffffffffffffffff168152505080600260006101000a81548173ffffffffffffffffffffffffffffffffffffffff021916908373ffffffffffffffffffffffffffffffffffffffff1602179055505061013f565b600080fd5b600073ffffffffffffffffffffffffffffffffffffffff82169050919050565b60006100df826100b4565b9050919050565b6100ef816100d4565b81146100fa57600080fd5b50565b60008151905061010c816100e6565b92915050565b600060208284031215610128576101276100af565b5b6000610136848285016100fd565b91505092915050565b608051610e8862000162600039600081816103aa01526106350152610e886000f3fe60806040526004361061007f5760003560e01c8063741bef1a1161004e578063741bef1a14610142578063b60d42881461016d578063dba6335f14610177578063dc0d3dff146101a25761008e565b80630d8e6e2c146100985780633ccfd60b146100c35780633e47d6f3146100da5780636b69a592146101175761008e565b3661008e5761008c6101df565b005b6100966101df565b005b3480156100a457600080fd5b506100ad610319565b6040516100ba9190610823565b60405180910390f35b3480156100cf57600080fd5b506100d86103a8565b005b3480156100e657600080fd5b5061010160048036038101906100fc91906108a1565b6105e8565b60405161010e9190610823565b60405180910390f35b34801561012357600080fd5b5061012c610600565b6040516101399190610823565b60405180910390f35b34801561014e57600080fd5b5061015761060d565b604051610164919061092d565b60405180910390f35b6101756101df565b005b34801561018357600080fd5b5061018c610633565b6040516101999190610957565b60405180910390f35b3480156101ae57600080fd5b506101c960048036038101906101c4919061099e565b610657565b6040516101d69190610957565b60405180910390f35b6802b5e3af16b188000061021e600260009054906101000a900473ffffffffffffffffffffffffffffffffffffffff163461069690919063ffffffff16565b101561025f576040517f08c379a000000000000000000000000000000000000000000000000000000000815260040161025690610a28565b60405180910390fd5b346000803373ffffffffffffffffffffffffffffffffffffffff1673ffffffffffffffffffffffffffffffffffffffff16815260200190815260200160002060008282546102ad9190610a77565b925050819055506001339080600181540180825580915050600190039060005260206000200160009091909190916101000a81548173ffffffffffffffffffffffffffffffffffffffff021916908373ffffffffffffffffffffffffffffffffffffffff160217905550565b60008073694aa1769357215de4fac081bf1f309adc32530690508073ffffffffffffffffffffffffffffffffffffffff166354fd4d506040518163ffffffff1660e01b8152600401602060405180830381865afa15801561037e573d6000803e3d6000fd5b505050506040513d601f19601f820116820180604052508101906103a29190610ac0565b91505090565b7f000000000000000000000000000000000000000000000000000000000000000073ffffffffffffffffffffffffffffffffffffffff163373ffffffffffffffffffffffffffffffffffffffff161461042d576040517f30cd747100000000000000000000000000000000000000000000000000000000815260040160405180910390fd5b60005b6001805490508110156104d85760006001828154811061045357610452610aed565b5b9060005260206000200160009054906101000a900473ffffffffffffffffffffffffffffffffffffffff16905060008060008373ffffffffffffffffffffffffffffffffffffffff1673ffffffffffffffffffffffffffffffffffffffff168152602001908152602001600020819055505080806104d090610b1c565b915050610430565b50600067ffffffffffffffff8111156104f4576104f3610b64565b5b6040519080825280602002602001820160405280156105225781602001602082028036833780820191505090505b5060019080519060200190610538929190610763565b5060003373ffffffffffffffffffffffffffffffffffffffff164760405161055f90610bc4565b60006040518083038185875af1925050503d806000811461059c576040519150601f19603f3d011682016040523d82523d6000602084013e6105a1565b606091505b50509050806105e5576040517f08c379a00000000000000000000000000000000000000000000000000000000081526004016105dc90610c25565b60405180910390fd5b50565b60006020528060005260406000206000915090505481565b6802b5e3af16b188000081565b600260009054906101000a900473ffffffffffffffffffffffffffffffffffffffff1681565b7f000000000000000000000000000000000000000000000000000000000000000081565b6001818154811061066757600080fd5b906000526020600020016000915054906101000a900473ffffffffffffffffffffffffffffffffffffffff1681565b6000806106a2836106d2565b90506000670de0b6b3a764000085836106bb9190610c45565b6106c59190610cb6565b9050809250505092915050565b6000808273ffffffffffffffffffffffffffffffffffffffff1663feaf968c6040518163ffffffff1660e01b815260040160a060405180830381865afa158015610720573d6000803e3d6000fd5b505050506040513d601f19601f820116820180604052508101906107449190610d5f565b5050509150506402540be4008161075b9190610dda565b915050919050565b8280548282559060005260206000209081019282156107dc579160200282015b828111156107db5782518260006101000a81548173ffffffffffffffffffffffffffffffffffffffff021916908373ffffffffffffffffffffffffffffffffffffffff16021790555091602001919060010190610783565b5b5090506107e991906107ed565b5090565b5b808211156108065760008160009055506001016107ee565b5090565b6000819050919050565b61081d8161080a565b82525050565b60006020820190506108386000830184610814565b92915050565b600080fd5b600073ffffffffffffffffffffffffffffffffffffffff82169050919050565b600061086e82610843565b9050919050565b61087e81610863565b811461088957600080fd5b50565b60008135905061089b81610875565b92915050565b6000602082840312156108b7576108b661083e565b5b60006108c58482850161088c565b91505092915050565b6000819050919050565b60006108f36108ee6108e984610843565b6108ce565b610843565b9050919050565b6000610905826108d8565b9050919050565b6000610917826108fa565b9050919050565b6109278161090c565b82525050565b6000602082019050610942600083018461091e565b92915050565b61095181610863565b82525050565b600060208201905061096c6000830184610948565b92915050565b61097b8161080a565b811461098657600080fd5b50565b60008135905061099881610972565b92915050565b6000602082840312156109b4576109b361083e565b5b60006109c284828501610989565b91505092915050565b600082825260208201905092915050565b7f596f75206e65656420746f207370656e64206d6f726520455448210000000000600082015250565b6000610a12601b836109cb565b9150610a1d826109dc565b602082019050919050565b60006020820190508181036000830152610a4181610a05565b9050919050565b7f4e487b7100000000000000000000000000000000000000000000000000000000600052601160045260246000fd5b6000610a828261080a565b9150610a8d8361080a565b9250828201905080821115610aa557610aa4610a48565b5b92915050565b600081519050610aba81610972565b92915050565b600060208284031215610ad657610ad561083e565b5b6000610ae484828501610aab565b91505092915050565b7f4e487b7100000000000000000000000000000000000000000000000000000000600052603260045260246000fd5b6000610b278261080a565b91507fffffffffffffffffffffffffffffffffffffffffffffffffffffffffffffffff8203610b5957610b58610a48565b5b600182019050919050565b7f4e487b7100000000000000000000000000000000000000000000000000000000600052604160045260246000fd5b600081905092915050565b50565b6000610bae600083610b93565b9150610bb982610b9e565b600082019050919050565b6000610bcf82610ba1565b9150819050919050565b7f43616c6c206661696c6564000000000000000000000000000000000000000000600082015250565b6000610c0f600b836109cb565b9150610c1a82610bd9565b602082019050919050565b60006020820190508181036000830152610c3e81610c02565b9050919050565b6000610c508261080a565b9150610c5b8361080a565b9250828202610c698161080a565b91508282048414831517610c8057610c7f610a48565b5b5092915050565b7f4e487b7100000000000000000000000000000000000000000000000000000000600052601260045260246000fd5b6000610cc18261080a565b9150610ccc8361080a565b925082610cdc57610cdb610c87565b5b828204905092915050565b600069ffffffffffffffffffff82169050919050565b610d0681610ce7565b8114610d1157600080fd5b50565b600081519050610d2381610cfd565b92915050565b6000819050919050565b610d3c81610d29565b8114610d4757600080fd5b50565b600081519050610d5981610d33565b92915050565b600080600080600060a08688031215610d7b57610d7a61083e565b5b6000610d8988828901610d14565b9550506020610d9a88828901610d4a565b9450506040610dab88828901610aab565b9350506060610dbc88828901610aab565b9250506080610dcd88828901610d14565b9150509295509295909350565b6000610de582610d29565b9150610df083610d29565b9250828202610dfe81610d29565b91507f80000000000000000000000000000000000000000000000000000000000000008414600084121615610e3657610e35610a48565b5b8282058414831517610e4b57610e4a610a48565b5b509291505056fea26469706673582212205cd55e40199625c1006d3323a77a5516635599dc0c2dca07e90207543d1431b964736f6c63430008120033",
  "devdoc": {
    "kind": "dev",
    "methods": {},
    "version": 1
  },
  "userdoc": {
    "kind": "user",
    "methods": {},
    "version": 1
  },
  "storageLayout": {
    "storage": [
      {
        "astId": 58,
        "contract": "contracts/FundMe.sol:FundMe",
        "label": "addressToAmountFunded",
        "offset": 0,
        "slot": "0",
        "type": "t_mapping(t_address,t_uint256)"
      },
      {
        "astId": 61,
        "contract": "contracts/FundMe.sol:FundMe",
        "label": "funders",
        "offset": 0,
        "slot": "1",
        "type": "t_array(t_address)dyn_storage"
      },
      {
        "astId": 73,
        "contract": "contracts/FundMe.sol:FundMe",
        "label": "priceFeed",
        "offset": 0,
        "slot": "2",
        "type": "t_contract(AggregatorV3Interface)45"
      }
    ],
    "types": {
      "t_address": {
        "encoding": "inplace",
        "label": "address",
        "numberOfBytes": "20"
      },
      "t_array(t_address)dyn_storage": {
        "base": "t_address",
        "encoding": "dynamic_array",
        "label": "address[]",
        "numberOfBytes": "32"
      },
      "t_contract(AggregatorV3Interface)45": {
        "encoding": "inplace",
        "label": "contract AggregatorV3Interface",
        "numberOfBytes": "20"
      },
      "t_mapping(t_address,t_uint256)": {
        "encoding": "mapping",
        "key": "t_address",
        "label": "mapping(address => uint256)",
        "numberOfBytes": "32",
        "value": "t_uint256"
      },
      "t_uint256": {
        "encoding": "inplace",
        "label": "uint256",
        "numberOfBytes": "32"
      }
    }
  }
}